:020000040800F2
:10000000A007002065010008C52000085D1F00084A
:1000100000000000000000000000000000000000E0
:10002000000000000000000000000000C9200008DF
:100030000000000000000000C72000081721000891
:100040007701000800000000770100087701000830
:1000500077010008770100087701000877010008A0
:100060000000000077010008770100087701000810
:10007000ED07000877010008770100080000000084
:100080007701000800000000000000007701000870
:1000900000000000770100087701000877010008E0
:1000A0000000000077010008000000003126000871
:1000B00000F002F800F046F80CA030C80838241808
:1000C0002D18A246671EAB4654465D46AC4201D190
:1000D00000F038F87E460F3E0FCCB646012633427C
:1000E00000D0FB1AA246AB463343184758280000FD
:1000F00078280000103A02D378C878C1FAD852079D
:1001000001D330C830C101D504680C6070470000CD
:100110000023002400250026103A01D378C1FBD823
:10012000520700D330C100D50B60704710B5642969
:1001300002D100F0FFF810BD002010BD1FB51FBD9B
:1001400010B510BD00F01FFB1146FFF7F7FF02F0DE
:10015000BDFA00F037FB03B4FFF7F2FF03BC00F079
:100160003DFB00000748804707480047FEE7FEE7E1
:10017000FEE7FEE7FEE7FEE704480549054A064BB1
:100180007047000099210008B1000008A00100207C
:10019000A0070020A0030020A0030020FEB5054614
:1001A00010460C46184373D0AE468C460020AD1A5C
:1001B00001469C4167D36646002701243D46B61A96
:1001C0009D4102D313463A462124654676462F04C4
:1001D000360C3E432D0CB61A9D4104D3150C1B045E
:1001E0002B4312041034654676462F06360A3E43EA
:1001F0002D0AB61A9D4104D3150E1B022B43120281
:100200000834654676462F0736093E432D09B61A4F
:100210009D4104D3150F1B012B431201241D65467C
:100220007646AF07B6083E43AD08B61A9D4104D3E3
:10023000950F9B002B439200A41C65467646EF0762
:1002400076083E436D08B61A9D411AD392185B4159
:10025000641C16E00018764665464941B71A9D4170
:100260000191009009D36046B11A98418E468446A8
:10027000009801990025401C6941DD0752082A4376
:100280005B08641EE6D57246634603B0F0BDFFE727
:1002900000200146C046C0462A462346F5E7000036
:1002A0000FB41CB5074B06AA7B446946009005981D
:1002B00000F03DFA0020694600F04CFA1CBC08BC76
:1002C00004B01847A9040000F8B50E460446002003
:1002D00020622046E1688847002829D0252802D0DE
:1002E0006268A16820E0E168204600278847050091
:1002F0001ED028464138192802D80127FF02203590
:100300003246204627602946FFF710FF002808D014
:10031000012804D0F61DF608F6000836D9E7361D88
:10032000D7E762682846A1689047206A401CCFE75B
:10033000206AF8BDF7B5002575291068009914A644
:1003400011D0C046C046002802DA404211A608E09B
:10035000009909688A0701D50FA602E0490704D56C
:100360000EA6012501E0C046C046009F00242437A8
:1003700004E000F0F4F930313955641C0028F8D15C
:100380002B4632462146009800F074F9FEBD00006D
:10039000000000002D0000002B00000020000000E5
:1003A00030B5441C03E00178401C00290DD08107C2
:1003B000F9D10B4BDD0104C8D11A91432940FAD081
:1003C000001B0A0603D0C01E30BD001B30BD0A044E
:1003D00001D0801E30BD0902FCD0401E30BD00009F
:1003E0000101010101E004C0091F0429FBD28B07B0
:1003F00001D50280801CC90700D002707047002917
:100400000BD0C30702D00270401C491E022904D33E
:10041000830702D50280801C891EE3E70022EEE7F5
:100420000022DFE7002203098B422CD3030A8B4210
:1004300011D300239C464EE003460B433CD40022DC
:1004400043088B4231D303098B421CD3030A8B42EE
:1004500001D394463FE0C3098B4201D3CB01C01ABC
:10046000524183098B4201D38B01C01A5241430987
:100470008B4201D34B01C01A524103098B4201D375
:100480000B01C01A5241C3088B4201D3CB00C01AE2
:10049000524183088B4201D38B00C01A524143085A
:1004A0008B4201D34B00C01A5241411A00D201467F
:1004B0005241104670475DE0CA0F00D04942031018
:1004C00000D34042534000229C4603098B422DD367
:1004D000030A8B4212D3FC22890112BA030A8B420F
:1004E0000CD3890192118B4208D3890192118B425E
:1004F00004D389013AD0921100E08909C3098B42E3
:1005000001D3CB01C01A524183098B4201D38B0125
:10051000C01A524143098B4201D34B01C01A5241C8
:1005200003098B4201D30B01C01A5241C3088B420D
:1005300001D3CB00C01A524183088B4201D38B00F8
:10054000C01A5241D9D243088B4201D34B00C01A82
:100550005241411A00D20146634652415B10104697
:1005600001D34042002B00D54942704763465B10DF
:1005700000D3404201B50020C046C04602BD7047CE
:100580007047704710B501469E240002CA15A307A4
:10059000002A02D01843002A04DBA21A002A0CDD2C
:1005A000D04010BD1206120E01D140004008A21A20
:1005B00003D4D04040420028F3DDFF224800120659
:1005C000904201D9002010BDC817C043584010BD4B
:1005D0001F22030C02D10F2200041CD0030E01D1F4
:1005E0000002083A030F01D10001121F830F01D14D
:1005F0008000921E002801DB4000521ED2055118D7
:10060000021251181922904004D3491C002801D12C
:100610004908490008467047C10FC90700D0404249
:10062000012292071143D3E701218907D0E7000097
:1006300010B5FF22C30D134009D05A4007D0914294
:1006400005DA5C42A14202DDC905081810BDC40FDD
:10065000E407002B06D0002A06D0002902DBFF2089
:10066000C0050443204610BD4102FCD0004810BD27
:100670000000C07FFFB504460D4681B024300090D5
:100680002168880604D51022E0699143216000E0CA
:100690000120A84201DD471B00E000270498A16962
:1006A0007A191018081AA0612078C00602D42046D2
:1006B000C046C046002608E003986268A168805DD5
:1006C0009047206A401C761C206204988642F3DB27
:1006D0002078C0060AD52046C046C04606E06268BB
:1006E000A16830209047206A401C206238467F1E57
:1006F0000028F4DC07E000986268A168405D90473C
:10070000206A401C206228466D1E0028F3DC20462B
:10071000C046C0462078000602D5022005B0F0BDD4
:100720000120FBE701694A1C02610878704700B5A7
:100730008FB00291002105910549019379440391FD
:10074000114604906846FFF7BFFD0FB000BD0000E2
:10075000E5FFFFFF0A681070521C0A6070470146EF
:100760008008081A02091018020A1018020C101842
:10077000C008820012185200891A01E0401C0A3990
:100780000A29FBD27047754600F024F8AE460500F2
:1007900069465346C008C000854618B020B5FFF72B
:1007A000EBFC60BC00274908B6460026C0C5C0C5A2
:1007B000C0C5C0C5C0C5C0C5C0C5C0C5403D490055
:1007C0008D46704710B50446C046C0462046FFF728
:1007D000C2FC10BD004870474001002001491820AC
:1007E000ABBEFEE7260002007047000010B50248CD
:1007F00000F0DDF910BD00003400002070B50446A3
:1008000000688168490724D58168102649070029B6
:1008100005DA8168890702D481683143816000F07C
:1008200007FD054611E000F003FD401B02280CD92E
:1008300020688068400708D5A06B3043A063E06B58
:1008400001210843E063084670BD206880684007C6
:10085000E9D4002070BDF8B50446006881688907B6
:10086000890F01292CD10168C90702D1C168090487
:1008700026D581680522114010250126012913D1B2
:10088000816802221143816021680320086000F022
:10089000CFFC074610E000F0CBFCC01B02280BD9B0
:1008A00020688068C00707D0A06B2843A063E06B76
:1008B0003043E0630120F8BD20688068C007EAD1BA
:1008C0000020F8BDF8B5044600200090206881683B
:1008D0008907890F012905D10168C90731D1C1688C
:1008E00009042ED48168184A1026114001250029D8
:1008F0001AD1816829438160154814490068FFF7BF
:1009000091FD00E0401E00900028FBD100F090FC1B
:10091000074611E000F08CFCC01B02280CD92068AF
:100920000068C043C00707D0A06B3043A063E06BF2
:100930002843E0630120F8BD20680068C043C00779
:10094000E8D10020F8BD00001700008040420F00F1
:100950002400002070B50446FFF714FE0546FFF79B
:100960005BFE214601F06EFF3F210906884201DD52
:10097000681C70BD284670BDF8B5154E00251021C5
:10098000304601F0A2FB002401271021304601F07F
:10099000AFFB00221021304600F043FC022001F0A2
:1009A00089FE1021304601F090FB1021304600F006
:1009B00033FC002803D03846A0402843C5B23C2071
:1009C00001F078FE641C082CDFDB2846F8BD00002F
:1009D0000004004810B5124C1021204601F088FB9D
:1009E00000221021204600F01CFCFF20E13001F025
:1009F00061FE1021204601F068FB502001F05AFEF4
:100A00001021204600F008FC002806D0FF24FF201B
:100A1000913001F04FFE204610BD0124F7E70000A1
:100A200000040048F8B51A4D07461021284601F089
:100A30005FFB002401263046A040384213D010212D
:100A4000284601F055FB00221021284600F0E9FB62
:100A5000012001F02FFE1021284601F036FB3C203A
:100A600001F028FE0FE01021284601F041FB002292
:100A70001021284600F0D5FB3C2001F01BFE102180
:100A8000284601F022FB641C082CD4DBF8BD0000D2
:100A900000040048F8B50025044620340095227D66
:100AA000012A39D00122227503689E68760767D42F
:100AB000384F4E68BE424DD09E6A0F78BA401643FA
:100AC0009E620123C26A1B079A421FD0012A1DD0D1
:100AD000022A1BD0032A19D0042A17D0052A15D0C0
:100AE000062A13D0072A11D002688B685669760748
:100AF000760FB3420AD05369DB08DB00536100680C
:100B000042690B7A5B075B0F1A4342610A68102A3D
:100B100004D0112A02D038E00220F8BD1E488368B4
:100B2000102A07D001229205134383600868102819
:100B300003D02AE00122D205F6E7194817490068D8
:100B4000FFF770FC0A21484300E0401E0090002897
:100B5000FBD11AE0986A0E78B24090439862096817
:100B6000102901D0112910D10B488268102904D016
:100B7000012189058A43826007E00121C905F9E75F
:100B8000816B2022114381630125002020752846B6
:100B9000F8BD0000011000000027014040420F0096
:100BA00024000020704770470068006C704770B5E3
:100BB000044600680168490702D54168490705D421
:100BC0000168090730D5416809072DD5A16BC90611
:100BD00004D4A16B012252021143A163C1680C2508
:100BE0000905890F00291AD1A17E002917D10168B2
:100BF000090714D581684A070121002A08DB4268E9
:100C0000AA434260A06B0A0290430843A06306E037
:100C1000A06B20221043A063E06B0843E0632046F2
:100C2000FFF7C0FF206805602068016809060DD540
:100C3000406800060AD5A06B012109040843A0639F
:100C4000204600F0D9F821688020086020680168FB
:100C5000C90613D54168C90610D5A16A1025012916
:100C600002D0C168C90707D0E16B02221143E163DA
:100C700005602046FFF797FF2068056070BD000003
:100C8000F8B500260446002805D0A06B254620357F
:100C9000002802D007E00120F8BD0020E06328759D
:100CA000204600F0ABF8A06B1022C006002870DBD5
:100CB0002068816849076CD4A16B13019943022312
:100CC0001943A16381688907890F012905D101684A
:100CD000C9070FD1C16809040CD4C168182399430E
:100CE000A3681943C16020680169636889008908A5
:100CF000194301612068C1683D4B1940C160207EE5
:100D0000617E8003C9030843A17E4B031843A36A95
:100D1000012B02D001231B0300E000231843E368EA
:100D200018432369022B09D0002318432B79E57E51
:100D30005B0018430123012D02D00AE00423F4E7ED
:100D4000002927D0A16B20252943A163E16B19431A
:100D5000E163E1690D46FF3DC23D02D0256A2943AA
:100D600008432168CD680543CD600125E16A2D0760
:100D7000A94213D0012911D002290FD003290DD087
:100D800004290BD0052909D0062907D0072905D049
:100D900010E028E0012109040843DAE721684D69E1
:100DA000ED08ED004D6121684D69A78D7F077F0F2C
:100DB0003D434D612168C9680E4D2940814207D1EC
:100DC0000020E063A06B80088000401CA06308E066
:100DD000A06B022188431043A063E06B1843E063DB
:100DE00001263046F8BDA06B1043A063F8E7000071
:100DF0001902FEFFE7FF3F837047000010B586B081
:100E0000044614216846FFF70BFB1449206888420A
:100E100021D11348826941150A43826182690A40DF
:100E20000592426909020A434261406908400590FF
:100E300002200090032001900020029009206946C2
:100E4000C00600F017F9002211460C2000F050FAFD
:100E50000C2000F041FA06B010BD00000024014053
:100E600000100240F8B504464069254620350E467C
:100E700008280BD02068C068C00709D0A06B2021CB
:100E80000843A063002028750120F8BD082700E072
:100E90000C2700F0CDF9009015E0701C13D0002E47
:100EA00005D000F0C5F90099401AB0420BD920686E
:100EB0000068384207D1A06B04210843A0630020DA
:100EC00028750320F8BD206800683842E5D0A06B83
:100ED000012149020843A0632068C16809058A0FFF
:100EE0000C21002A1AD1A27E002A17D1026812070B
:100EF00014D5826853070122002B08DB43688B431B
:100F00004360A06B130298431043A06306E0A06BFC
:100F100020231843A063E06B1043E063207E002889
:100F200001D1206801600020F8BD000070B50446C2
:100F3000216800208968490721D425462035297D6C
:100F400001291CD001212975617E012904D0204688
:100F5000FFF7B8FC002811D1A16B0A4A1140FF220B
:100F600001321143A1630021E163297522681C212C
:100F7000116021688A6804231A438A6070BD0220C8
:100F800070BD0000FEF1FFFF70B505460446203538
:100F9000287D012807D001262E752046FFF72EFC5C
:100FA000002802D00CE0022070BD2046FFF753FC61
:100FB000002805D1A16BFF22013291433143A16387
:100FC0000021297570BD30B5014620314B780022D3
:100FD000022B04D0042383630A70012030BD036810
:100FE0001C680E25AC431C6003681C686408640020
:100FF0001C600123056C1C46C06BAC4044604B7008
:101000000A70002030BD70B50024014620314A78B6
:10101000022A03D004218163012416E002681368C8
:101020000E25AB431360026813685B085B00136016
:101030000122056C1346AB40C56B6B604A70002201
:101040000A70416B002900D08847204670BD00001F
:1010500070B5044600F0ECF80546601C02D0044868
:101060000078241800F0E4F8401BA042FAD370BDC9
:1010700018000020F8B5002303240125BAE02E460D
:101080009E40B44632407CD00E79B607B60F012E92
:1010900001D0022E17D186682746B6465E00B740BB
:1010A00000967646BE43B646CF68009EB740764669
:1010B0003743876046686746BE430F79FF06FF0FD8
:1010C0009F40374347600E79F643B6070ED0C66897
:1010D0002746B4465E00B646B7406646BE43B446B1
:1010E0008F687646B74066463743C7600E79B607C5
:1010F000B60F022E14D1DE08B60036180096366AF6
:101100005F07B446FE0E0F27B646B7406646BE439D
:10111000B4460F697646B74066463743009E37624D
:1011200006682746B4465E00B646B7406646BE43EC
:101130000F79B446BF07BF0F7646B74066463743C0
:1011400007604E68B603B60F53D02D4FBE692E43CD
:10115000BE61BE699F08F607F60F2A4EBF00BE1992
:101160000096B6680F27B4469E07360FB646B740BE
:101170006646BE430927FF06B446B84202D100279F
:1011800010E036E0204FB84201D101270AE01F4F9E
:10119000B84201D1022705E01D4FB84201D1032713
:1011A00000E005277646B74066463743009EB760A5
:1011B000184E36684F689643FF0300D51643154F07
:1011C0003E607E684F689643BF0300D51643114FBB
:1011D0007E60BE684F689643FF0200D516430D4FF0
:1011E000BE60FE684F689643BF0200D51643094AA9
:1011F000D6605B1C0A681646DE4000D03FE7F8BDAB
:1012000000100240000001400004004800080048AF
:10121000000C0048000401400069084000D0012093
:101220007047002A01D081617047816270470000D9
:10123000014880687047000018000020024881685B
:1012400002788918816070471800002010B50648A0
:101250000168102211430160032000F007F800F03C
:1012600027F8002010BD00000020024070B50446A1
:101270000D4D7D202978C000FFF7D4F801460B48BA
:101280000068FFF7CFF800F043FB002809D1042CD9
:1012900007D200222146401E00F02AF800206C6090
:1012A00070BD012070BD0000180000202400002047
:1012B00008B50848816901221143816181691140A3
:1012C0000091C26901040A43C261C06908400090EC
:1012D00008BD000000100240002805DBC106C90E51
:1012E00001208840014908607047000000E100E0EB
:1012F00010B501F0BDF910BDF8B505460068354CD4
:10130000C00352D5E0690026C00007D4E16920047B
:101310000143E161E1690140012600912E48016825
:10132000C90510D40168821511430160FFF780FFE1
:10133000074604E0FFF77CFFC01B642824D826483A
:101340000068C005F6D5206A03273F02384020D048
:101350006968394081421CD0206A226AB843012161
:1013600009040A432262226A8A4322622062C00779
:101370000FD0FFF75DFF009008E0FFF759FF0099DD
:10138000411A1648814201D90320F8BD206A80071E
:10139000F3D5206A6968B84308432062002E04D060
:1013A000E169012000078143E1612878C00705D089
:1013B000206BA96880088000084320632878800695
:1013C00005D5206B10218843E9680843206300207D
:1013D000F8BD0000001002400070004088130000BB
:1013E000F8B50F46060059D03A4D2868C007C00F1F
:1013F000B84209D22868400840003843286028686D
:10140000C007C00FB84249D13068334C81070CD5B2
:10141000400704D5606807210902084360606068DE
:10142000F0218843B168084360603078C00726D057
:10143000706801280ED0216802280ED08907002983
:101440002CDA61688908890001436160FFF7F0FECA
:1014500000900DE021688903F1E78901EFE7FFF7CC
:10146000E7FE0099411A1D48814201D90320F8BDC9
:1014700060680C210840716889008842EFD12868B3
:10148000C007C00FB8420BD9286840084000384355
:1014900028602868C007C00FB84201D00120F8BDFD
:1014A0003078400706D56068072109028843F16853
:1014B0000843606000F028F86168094A0906090FCE
:1014C000515CC840074908600320FFF7CFFE0020A9
:1014D000F8BD000000200240001002408813000008
:1014E0002C290008240000200448054900684968A8
:1014F000044A4905490F515CC84070472400002048
:10150000001002403C29000810B514A30FCB88B08E
:101510006C460FC415A30FCB0FC4184A51680C209A
:101520000B4603401648042B16D0082B14D18B020F
:101530001B0F6C46E45CD26A04AB1207120F9A5C74
:10154000C90305D500231946FEF728FE214601E010
:1015500020460C4901F074F808B010BD02030405E0
:10156000060708090A0B0C0D0E0F101001020304E8
:1015700005060708090A0B0C0D0E0F10001002409B
:1015800000127A0000093D00FEB5040070D02078FA
:10159000DC4DC0074AD068680007800F012807D0DB
:1015A00068680007800F022809D16868C00306D563
:1015B000286880033AD560680028E7D036E0616883
:1015C000012914D001208004002901D0052914D05C
:1015D0002A68012109048A432A6029688143296015
:1015E0006068002816D0FFF723FE06460EE0286844
:1015F0000121090408432860F2E7296801432960B2
:10160000F5E7FFF715FE801B64286ED82868800375
:10161000F7D50BE0FFF70CFE064604E0FFF708FEE7
:10162000801B6428F1D828688003F7D4207801262D
:10163000800700283CDA68680007800F07D06868D8
:101640000007800F022809D16868C00306D4286803
:10165000800716D5E06801280AD112E0E06800286A
:10166000286816D030432860FFF7E2FD074605E002
:1016700043E1FFF7DDFDC01B0228C6D828688007BC
:10168000F7D52868F82188432169C90008432860F4
:101690000EE0400840002860FFF7CAFD074604E05E
:1016A000FFF7C6FDC01B0228AFD828688007F7D413
:1016B0002078000722D5E0690028686A0ED0304300
:1016C0006862FFF7B5FD074604E0FFF7B1FDC01BF8
:1016D00002289AD8686A8007F7D50FE040084000D2
:1016E0006862FFF7A5FD074605E09DE0FFF7A0FD56
:1016F000C01B022889D8686A8007F7D4207804279D
:101700004007002860DA00200190E869C00008D492
:10171000E969B8060143E961E969014001200091E6
:10172000019079480168C90511D4016882151143F7
:101730000160FFF77DFD009005E0FFF779FD00995E
:10174000401A642870D870480068C005F5D5A068B4
:1017500001280AD0002801D0052810D0286A4008A6
:1017600040002862286AB84301E0286A30432862B2
:10177000A068002812D0FFF75BFD00900AE0286AFD
:1017800038432862F1E7FFF753FD0099411A5F489B
:10179000814249D8286A8007F5D50DE0FFF748FD5A
:1017A000009006E0FFF744FD0099411A5748814236
:1017B0003AD8286A8007F5D40198002804D0E9694E
:1017C000012000078143E9612078C00635D56069B2
:1017D00001280CD0401D686B23D038436863686BC8
:1017E000400840006863FFF723FD064622E0686B6F
:1017F00038436863686B30436863FFF719FD06463A
:1018000004E0FFF715FD801B02285BD8686B80079A
:10181000F7D5686BF8218843A169C900084368635C
:101820000BE0B8436863F4E74CE0FFF701FD801B71
:10183000022847D8686B8007F7D4206A00285ED05A
:1018400069680907890F022942D001263606022855
:10185000286805D0B0432860FFF7EAFC044633E06F
:10186000B0432860FFF7E4FC074604E0FFF7E0FC24
:10187000C01B022826D828688001F7D4E86AE16AEC
:10188000000900010843E862616AA06A08436968C8
:101890003D22120491430843686028683043286061
:1018A000FFF7C6FC044604E0FFF7C2FC001B022859
:1018B00008D828688001F7D521E0FFF7B9FC001BA4
:1018C000022801D90320FEBD28688001F5D416E066
:1018D0000128F8D06868E96A01221204636A0240AC
:1018E0009A420AD10907E26A090F914205D10F21F4
:1018F00089040840A16A884201D00120FEBD002071
:10190000FEBD00000010024000700040881300007F
:10191000094910B5401E884201D9012010BD074C6D
:1019200060610321081F00F0A3FE0020A0610720D2
:101930002061002010BD0000FFFFFF0000E000E07C
:10194000F0B502462032137F012B1BD001261677FB
:101950000223537705686B68AC687027BB430F6838
:101960001F436F600068084B984202D0074B9842B3
:1019700004D1802349689C4321438160567700202D
:101980001077F0BD0220F0BD002C014000040040A3
:1019900070B5040005D025462035687F002802D0A8
:1019A00006E0012070BD00202877204600F014F8E2
:1019B00002206877211D206800F0F0FB01204034F0
:1019C000A071A877E87720706070A070E070207137
:1019D00060716877002070BD08B5006805498842CD
:1019E00007D10548C26902210A43C261C0690840A3
:1019F000009008BD00040040001002400146203164
:101A00004A7F012A01D00120704702224A770068EC
:101A100008490122884202D00749884204D18168DE
:101A20004907490F062902D00168114301600020CF
:101A300070470000002C014000040040F8B5054646
:101A400004462035287F0026012817D0012028775A
:101A500002206877226890687727FF23B8431B022B
:101A6000984390600868502838D00EDC20284FD06A
:101A700006DC00284CD010281ED149E00220F8BD19
:101A8000302845D0402817D13AE060282ED0702861
:101A900019D001221203801A0FD090420CD1CB68CA
:101AA0004A688968206800F0B5FB206881680122D7
:101AB00092031143816000E0012601206877002035
:101AC00028773046F8BDCB684A688968206800F0FE
:101AD000A1FB2168886838438860EEE7CA684968D6
:101AE000206800F0AAFB5021206806E0CA68496817
:101AF000206800F0B3FB6021206800F096FBDCE773
:101B0000CA684968206800F098FB40212068F4E723
:101B1000226801461046F0E770477047F8B5026842
:101B20000446D069116896689C4B05461D402023E9
:101B3000002D75D0F7079A4DFF0FBC460D402F437F
:101B40006DD02546C7078035002F06D0CF0504D5B8
:101B5000012717622A683A432A60820708D5F207EC
:101B600006D0276802223A622A6804273A432A608C
:101B7000420708D5F20706D02668042232622A6896
:101B8000022632432A6002070AD50A461A406646F0
:101B9000324305D02668082232622E6816432E6032
:101BA000020508D54A0106D501222668D202326212
:101BB0002A681A432A602A68002A39D0800606D586
:101BC000880604D5616E002901D020468847286820
:101BD00021688968490602D4282108422DD0204670
:101BE00000F0F0FB21688868400622D5EFF31080F2
:101BF000012282F310888B68402293438B6080F32C
:101C00001088206F002814D066494163206FFFF7C9
:101C1000FAF900280CD0206F416B08E000E012E0D8
:101C2000850610D58D060ED5616E9DE0204688474D
:101C3000F8BD2046FFF771FFF8BD2046FFF76DFFA6
:101C400000202860F8BD256E012D7DD1C5067BD50D
:101C5000CD0679D510261662226890682546400682
:101C60004035002845DA216F086840680004000C00
:101C7000E8D02F8B8742E5D968838869202833D044
:101C8000EFF31080012181F3108811683701B94307
:101C9000116080F31088EFF31080012181F3108828
:101CA00021688A68520852008A6080F31088EFF336
:101CB0001080012181F3108821688A684027BA4387
:101CC0008A6080F31088E36700202066EFF31080BD
:101CD000012181F3108821680A68B2430A6080F309
:101CE0001088206FFFF76FF9288B698B401A81B23B
:101CF00031E0288B698B401A81B2688B0028A1D013
:101D000000299FD0EFF31080012585F31088156816
:101D1000FF272137BD43156080F31088EFF3108053
:101D2000012282F31088226895686D086D00956025
:101D300080F31088E367002020666066EFF3108070
:101D4000012282F3108800E009E022681368B3439F
:101D5000136080F310882046FFF7DEFEF8BD05060D
:101D600006D50D0604D5A16E002900D05EE7F8BDAA
:101D70004006FCD54806FAD52046EFF31081012431
:101D800084F3108814684025AC43146081F31088F4
:101D900083670021816600F0E0F8F8BD0F080000BD
:101DA00020010004B123000810B5040003D0A06F87
:101DB000002802D007E0012010BD00217420015549
:101DC000204600F027F82420A06720680168490811
:101DD00049000160204600F025FB0128ECD0606A34
:101DE000002802D0204600F04CFA20684168012209
:101DF000D20291434160206881680822914381604A
:101E000020680168012211430160204600F09EFA1B
:101E100010BD000010B586B0044614216846FEF7D8
:101E2000FFFA16492068884226D1154882690121A7
:101E300089030A43826182690A4005924269C900A6
:101E40000A4342614069084005900E480090022014
:101E500001900020029003200390012004900920AB
:101E60006946C006FFF706F9002211461B20FFF75E
:101E70003FFA1B20FFF730FA06B010BD00380140D2
:101E80000010024004040000FFB50446806F83B0D8
:101E900017460D4620285ED1002D0AD0002F08D00D
:101EA000A168C001814207D12069002804D1E80758
:101EB00002D0012007B0F0BD204660300090007DC8
:101EC000012848D000980121017500208021085187
:101ED0002120A067FFF7ACF92646403601903782F3
:101EE00077820120A1680003814202D12069002885
:101EF00005D02F46002500990020087511E0002725
:101F0000F9E700228021204600F01AFB002815D1B5
:101F1000002F15D02168387808857F1C708A401EF4
:101F20007082708A019B002806980090E9D10022F7
:101F30004021204600F004FB002808D00320B9E728
:101F400028882168C005C00D0885AD1CE6E7202063
:101F5000A0670020AEE70220ACE77047FEE7000074
:101F60003EB50021174800910191029141608160C6
:101F70000124134A04610260C160042242610176B7
:101F800041768476FF22C176C232C2610246016286
:101F9000203211718462FEF773FE002801D072B600
:101FA000FEE701200003019007200290009469469B
:101FB0000448FEF76FFD002801D072B6FEE73EBD73
:101FC000002401403400002000B587B01421684689
:101FD000FEF726FA10484269012189050A43426149
:101FE00042690A400592426949110A4342614269C5
:101FF0000A400592426949000A434261406908402B
:10200000059010200090002001900290694603483E
:10201000FFF730F807B000BD001002400004004890
:1020200010B586B0002400941648019402940394DD
:102030000494134905940160272184604160046180
:1020400011498461C160FFF7A3FC002801D072B67A
:10205000FEE701200003009069460A48FFF7EEFC06
:10206000002801D072B6FEE7049404A9054805943F
:10207000FFF766FC002801D072B6FEE706B010BD7F
:102080000004004074000020FEFF000010B50C4862
:102090000A4901604B21C901416000218160C16092
:1020A00001618161C1610C22016242614162FFF7FD
:1020B0007BFE002801D072B6FEE710BD003801405B
:1020C000BC000020FEE77047704730B585B00C4675
:1020D000054614216846FEF7A3F90020019001206F
:1020E0000290009469462846FEF7C4FF05B030BD53
:1020F00030B585B00C46054614216846FEF790F9C8
:102100000120019000200390009469462846FEF7C4
:10211000B1FF05B030BD10B5FFF790F810BD70B538
:1021200094B030216846FEF77BF9002401250F9416
:1021300011200595109400900195102006900E94A2
:1021400013940003099003200D9480040C941294BE
:1021500002260A90119408960B946846FFF714FA29
:10216000002801D072B6FEE707200C900E940121E2
:102170000D960F940CA8FFF733F9002801D072B622
:10218000FEE710A810951294FFF7B6F8002801D0CA
:1021900072B6FEE714B070BD7047000070B50268FB
:1021A000174B184E984201D0B04203D17024A2437D
:1021B0004C682243144C154D984208D0B04206D0CA
:1021C000134EB04203D0A04201D0A84204D103264E
:1021D0003602B243CE6832438026B2434E69324360
:1021E00002608A68C2620A688262984203D0A04292
:1021F00001D0A84201D1096901630121416170BD8B
:10220000002C01400004004000440140004801400F
:102210000020004030B58468FF252D021B021343C7
:10222000AC430B432343836030BD826870239A43E1
:102230000A4307210A438260704730B5036A046A83
:102240006408640004628469F025AC4312012243EF
:102250000A24A3430B438261036230BD30B5036A95
:102260001024A34303628469036A0F252D0312031C
:10227000AC432243A024A3430901194382610162B4
:1022800030BD10B5818CC90707D001684A680123A9
:102290005B049A43836A1A434A60818C890707D595
:1022A00001684A6801231B049A43C36A1A434A60BF
:1022B000818C490707D501684A6801239B049A432A
:1022C000036B1A434A60818C090707D501684A6885
:1022D0000123DB039A43436B1A434A60818CC9068E
:1022E00007D50268916801231B039943836B194347
:1022F0009160818C890607D501688A6801235B0398
:102300009A43C36B1A438A60818C490612D50368CD
:102310005A6801210905046C8A4322435A60026C01
:102320008A4207D10268516803235B059943436CD5
:1023300019435160818C090607D501684A68012359
:10234000DB04806C9A4302434A6010BDF8B5044632
:10235000002680300660FEF76BFF054620680068A7
:10236000124F000709D501212B46002249052046BE
:10237000009700F0E5F800280DD1206800684007BC
:102380000BD501212B46002289052046009700F03D
:10239000D7F8002801D00320F8BD2020A067E0670F
:1023A0002666603426750020F8BD0000FFFFFF019F
:1023B00010B5406A0022014640314A834A82FFF745
:1023C000ACFB10BD10B5EFF31081012282F3108831
:1023D00002681368FF242134A343136081F310883B
:1023E000EFF31081012282F31088026893685B0882
:1023F0005B00936081F31088016E01290BD1EFF32C
:102400001081012282F31088026813681024A3430C
:10241000136081F310882021C167002101664166A5
:1024200010BD000070B5044680682169E269084368
:10243000616900251143084321680A683C4B1A4032
:1024400002430A6021684868032212039043E2684D
:1024500010434860A169206A084321688A680B23F9
:102460001B029A4302438A603248006B8007800F48
:1024700016D0012818D0022818D0032812D0102115
:102480000120E369C0032C4A2C4E83422BD1002942
:102490000ED002290FD004290FD008293FD110E017
:1024A0000021EDE70221EBE70421E9E70821E7E756
:1024B000FFF71AF803E0104603E0FFF725F80028BD
:1024C00031D0616840004A088018FDF7ABFF80B248
:1024D00001461039B14222D81849491C0140000771
:1024E000400F08431DE0002906D0022907D0042927
:1024F00007D0082913D108E0FEF7F6FF03E01046E5
:1025000003E0FFF701F800280DD061684A081018B1
:10251000FDF788FF80B201461039B14201D901258B
:1025200001E02168C86000206066A066284670BD92
:10253000F369FFFF0010024000127A00EFFF000075
:10254000FFB581B005461746044660350A9E55E042
:10255000701C53D0FEF76CFE0499401AB04230D87C
:10256000002E2ED020680168490747D5C069C043B6
:10257000000543D401202168C0020862EFF31080F7
:10258000012181F3108821680B68FF22A132934357
:102590000B6080F31088EFF31080012181F3108825
:1025A00021688A68520852008A6080F310882020CF
:1025B000A067E0678034206000202875032005B004
:1025C000F0BDEFF31080012181F3108821680B68C2
:1025D000FF22A13293430B6080F31088EFF3108049
:1025E000012181F3108821688A68520852008A60AC
:1025F00080F310882020A067E067DDE72068C169CC
:102600000298884304D00020B842A1D00020D6E729
:102610000120F9E710B50446FDF7C2FE82B27D2322
:10262000DB0021460148FFF72FFC10BDBC00002055
:1026300010B50248FFF772FA10BD0000BC00002080
:10264000F8B5040C8BB2264682B25E430D0C1046E0
:10265000370C5843360480190021794116466E43E1
:10266000370C36048019794126466E438919F8BD26
:102670008307FF22DB0E9A408907090E9940002844
:1026800008DB830809489B001B181868904308431F
:10269000186070470007000F0838830804489B0043
:1026A0001B18D86990430843D861704700E400E0E4
:1026B00000ED00E0044900220B685A6209684A6A8A
:1026C0008242FCD37047000074000020FEF7BEFD7C
:1026D000FFF725FDFFF778FCFFF7A2FCFFF7D6FC1C
:1026E000FFF73EFC3148FFF789F9E1266425304CBD
:1026F0003601EF002D484038FEF718FC2B486421C6
:102700004038FEF7AFFB29484038FEF74DFA6061CC
:1027100026484038FEF738FC60696421484331465A
:10272000FDF780FE281AA060FEF754F92070012002
:10273000FEF78EFCCC20FEF775F94420FEF772F907
:102740003846FEF785FCFEF745F920700120FEF7BC
:102750007FFCCC20FEF766F9BE20FEF763F9FEF79A
:102760000BF96070FEF708F9A07061780002084369
:102770002061FDF759FF0321C943FDF759FF606050
:10278000FEF7E8F87D22A168D200514342180748BD
:1027900008A14C38E260FDF783FD04484C38FFF790
:1027A00039FFC820FEF754FCA4E7000074000020A5
:1027B000000000202564000070B501250400ED072D
:1027C0004C4020D4441A01D2001B0919C60D4B00FD
:1027D000F2B2FF2A29D01B0E2CD000020C02D31A11
:1027E0002C43DC402843051910D2280A02D3401C90
:1027F0006D0611D0761EF6058019FF2A00DA70BD2D
:10280000C00DC00570BD694000F02EF801200543E1
:10281000C541521C761CE8E764089C40C901614030
:102820008900E7D10124A043E4E71B0E440200D055
:10283000034870BD002AFCD1C00FC00770BD00BFA7
:102840000000C07F70B50125ED07684004004C40D2
:1028500002D5694000F008F8FFF7B4FF70B5012514
:102860000400ED074C4022D4441A02D26C40001BF5
:102870000919C60D4B00F2B2FF2A4BD01B0E50D0E7
:1028800000020C02D31A2C43DC40A843051B05D5DB
:10289000AD0019D36D08761E521E37D0F605280AF2
:1028A00001D2801970BD70416D0603D070BD6940C2
:1028B000FFF788FF9C4009026140490001D0401E9B
:1028C00070BD0124A04370BD6D081DD001202B0CEC
:1028D00001D12D0410302B0E01D12D0208302B0F09
:1028E00001D12D01001DAB0F01D1AD00801CEB0FFC
:1028F00001D16D00401C6D00361A121A680AF505E8
:102900004019012A02DB70BD002070BDC036300ABC
:10291000C00770BD1B0E440201D1FF2B00D102483D
:1029200070BD002AF0D070BD0000C07F0000000024
:10293000000000000102030406070809000000006F
:1029400001020304642900080000002028000000A0
:10295000F40000088C2900082800002078070000F7
:10296000100100080000000000000000000000004E
:102970000000000000000000000000000100000056
:0C298000040000000000000000127A00BB
:04000005080000B13E
:00000001FF
